{
  "contractName": "Delta",
  "abi": [
    {
      "inputs": [],
      "payable": false,
      "stateMutability": "nonpayable",
      "type": "constructor"
    },
    {
      "anonymous": false,
      "inputs": [
        {
          "indexed": false,
          "name": "o_item",
          "type": "string"
        },
        {
          "indexed": false,
          "name": "o_precio",
          "type": "uint256"
        },
        {
          "indexed": false,
          "name": "o_dir",
          "type": "address"
        },
        {
          "indexed": false,
          "name": "fin",
          "type": "uint256"
        },
        {
          "indexed": false,
          "name": "state",
          "type": "bool"
        }
      ],
      "name": "datos_oferta",
      "type": "event"
    },
    {
      "anonymous": false,
      "inputs": [
        {
          "indexed": false,
          "name": "my_dir",
          "type": "address"
        },
        {
          "indexed": false,
          "name": "my_email",
          "type": "string"
        },
        {
          "indexed": false,
          "name": "my_monto",
          "type": "uint256"
        }
      ],
      "name": "ultimo_ofertante",
      "type": "event"
    },
    {
      "constant": false,
      "inputs": [
        {
          "name": "_email",
          "type": "string"
        }
      ],
      "name": "ofertar2",
      "outputs": [],
      "payable": true,
      "stateMutability": "payable",
      "type": "function"
    },
    {
      "constant": false,
      "inputs": [
        {
          "name": "time",
          "type": "uint256"
        }
      ],
      "name": "terminar_subasta",
      "outputs": [],
      "payable": true,
      "stateMutability": "payable",
      "type": "function"
    }
  ],
  "bytecode": "0x608060405234801561001057600080fd5b5033600460006101000a81548173ffffffffffffffffffffffffffffffffffffffff021916908373ffffffffffffffffffffffffffffffffffffffff160217905550600460009054906101000a900473ffffffffffffffffffffffffffffffffffffffff16600760006101000a81548173ffffffffffffffffffffffffffffffffffffffff021916908373ffffffffffffffffffffffffffffffffffffffff1602179055506702c68af0bb1400006000819055506040805190810160405280600481526020017f4954454d000000000000000000000000000000000000000000000000000000008152506001908051906020019061010f9291906103e4565b506001600260006101000a81548160ff02191690831515021790555062093a8042016003819055506040805190810160405280600b81526020017f53696e204a756761646f72000000000000000000000000000000000000000000815250600590805190602001906101829291906103e4565b506040805190810160405280600d81526020017f4e6f205265676973747261646f00000000000000000000000000000000000000815250600690805190602001906101ce9291906103e4565b506000546008819055507fc7a3d0ee2c72e7ac8accda9fa7ea5ddd291ea5021d3e2c23b0e3d1124a7c4f966001600854600460009054906101000a900473ffffffffffffffffffffffffffffffffffffffff16600354600260009054906101000a900460ff1660405180806020018681526020018573ffffffffffffffffffffffffffffffffffffffff1673ffffffffffffffffffffffffffffffffffffffff168152602001848152602001831515151581526020018281038252878181546001816001161561010002031660029004815260200191508054600181600116156101000203166002900480156103055780601f106102da57610100808354040283529160200191610305565b820191906000526020600020905b8154815290600101906020018083116102e857829003601f168201915b5050965050505050505060405180910390a17f6465b0bf12f7e280874be1fc26f03ca9c2ce3344bf57f986ad9169d0b8a83fce600760009054906101000a900473ffffffffffffffffffffffffffffffffffffffff16600854604051808373ffffffffffffffffffffffffffffffffffffffff1673ffffffffffffffffffffffffffffffffffffffff16815260200180602001838152602001828103825260178152602001807f656d61696c2061756e206e6f207265676973747261646f000000000000000000815250602001935050505060405180910390a1610489565b828054600181600116156101000203166002900490600052602060002090601f016020900481019282601f1061042557805160ff1916838001178555610453565b82800160010185558215610453579182015b82811115610452578251825591602001919060010190610437565b5b5090506104609190610464565b5090565b61048691905b8082111561048257600081600090555060010161046a565b5090565b90565b61064a806104986000396000f30060806040526004361061004c576000357c0100000000000000000000000000000000000000000000000000000000900463ffffffff1680637dddae1d14610051578063b89f75fe146100ad575b600080fd5b6100ab600480360381019080803590602001908201803590602001908080601f01602080910402602001604051908101604052809392919081815260200183838082843782019150505050505091929192905050506100cd565b005b6100cb600480360381019080803590602001909291905050506102f7565b005b600854341180156100ea5750600260009054906101000a900460ff165b156102ef57600760009054906101000a900473ffffffffffffffffffffffffffffffffffffffff1673ffffffffffffffffffffffffffffffffffffffff166108fc343073ffffffffffffffffffffffffffffffffffffffff1631039081150290604051600060405180830381858888f19350505050158015610170573d6000803e3d6000fd5b5033600760006101000a81548173ffffffffffffffffffffffffffffffffffffffff021916908373ffffffffffffffffffffffffffffffffffffffff16021790555080600690805190602001906101c8929190610579565b50346008819055507f6465b0bf12f7e280874be1fc26f03ca9c2ce3344bf57f986ad9169d0b8a83fce600760009054906101000a900473ffffffffffffffffffffffffffffffffffffffff166006600854604051808473ffffffffffffffffffffffffffffffffffffffff1673ffffffffffffffffffffffffffffffffffffffff168152602001806020018381526020018281038252848181546001816001161561010002031660029004815260200191508054600181600116156101000203166002900480156102da5780601f106102af576101008083540402835291602001916102da565b820191906000526020600020905b8154815290600101906020018083116102bd57829003601f168201915b505094505050505060405180910390a16102f4565b600080fd5b50565b600081111515610576576000600260006101000a81548160ff0219169083151502179055507fc7a3d0ee2c72e7ac8accda9fa7ea5ddd291ea5021d3e2c23b0e3d1124a7c4f966001600854600460009054906101000a900473ffffffffffffffffffffffffffffffffffffffff16600354600260009054906101000a900460ff1660405180806020018681526020018573ffffffffffffffffffffffffffffffffffffffff1673ffffffffffffffffffffffffffffffffffffffff168152602001848152602001831515151581526020018281038252878181546001816001161561010002031660029004815260200191508054600181600116156101000203166002900480156104495780601f1061041e57610100808354040283529160200191610449565b820191906000526020600020905b81548152906001019060200180831161042c57829003601f168201915b5050965050505050505060405180910390a17f6465b0bf12f7e280874be1fc26f03ca9c2ce3344bf57f986ad9169d0b8a83fce600760009054906101000a900473ffffffffffffffffffffffffffffffffffffffff166006600854604051808473ffffffffffffffffffffffffffffffffffffffff1673ffffffffffffffffffffffffffffffffffffffff168152602001806020018381526020018281038252848181546001816001161561010002031660029004815260200191508054600181600116156101000203166002900480156105655780601f1061053a57610100808354040283529160200191610565565b820191906000526020600020905b81548152906001019060200180831161054857829003601f168201915b505094505050505060405180910390a15b50565b828054600181600116156101000203166002900490600052602060002090601f016020900481019282601f106105ba57805160ff19168380011785556105e8565b828001600101855582156105e8579182015b828111156105e75782518255916020019190600101906105cc565b5b5090506105f591906105f9565b5090565b61061b91905b808211156106175760008160009055506001016105ff565b5090565b905600a165627a7a72305820c77d5d4843dceb2d4b3bfd0599135d6f1c8871d3355b559d73a0cd59bb808be30029",
  "source": "//pragma solidity >=0.4.21 <0.6.0;\npragma solidity ^0.4.24;\n\n\ncontract Delta {\n\n    // DATOS DEL ITEM\n    uint precio_base;\n    string  item;\n    bool open;\n    uint time_fin;\n    address  owner;\n\n    // DATOS DEL JUGADOR\n    string nombre;\n    string email;\n    address  dir;\n    uint precio_oferta;\n\n    // MENSAJES\n    event datos_oferta(string o_item, uint o_precio, address o_dir, uint fin, bool state);\n    event ultimo_ofertante(address my_dir, string my_email, uint my_monto);\n\n    constructor() public {\n      owner = msg.sender; //dato temporal cuante del dueño del item\n      dir = owner;\n      precio_base = 0.2 * 1000000000000000000;\n      item = \"ITEM\";\n      open = true;\n      time_fin = now + (60*60*24*7); //86400;\n\n      nombre = \"Sin Jugador\";\n      email = \"No Registrado\";\n      precio_oferta = precio_base;\n\n      emit datos_oferta(item, precio_oferta, owner, time_fin, open);\n      emit ultimo_ofertante(dir, \"email aun no registrado\", precio_oferta);\n    }\n\n    function ofertar2 (string memory _email) public payable{\n      if((msg.value  > precio_oferta) && open){\n          // retorna dinero al anteriro jugador\n          dir.transfer(address(this).balance-msg.value);\n          // actualiza nuevo datos\n          dir = msg.sender;\n          email = _email;\n          precio_oferta = msg.value;\n          emit ultimo_ofertante(dir, email, precio_oferta);\n      }else{\n        revert();\n      }\n    }\n\n    function terminar_subasta(uint time) public payable{\n        if(time <= 0){\n            open = false;\n            emit datos_oferta(item, precio_oferta, owner, time_fin, open);\n            emit ultimo_ofertante(dir, email, precio_oferta);\n        }\n    }\n\n    /*\n    function ofertar (string memory _email,  uint _monto) public{\n      if((_monto > precio_oferta) && open){\n          // retorna dinero al anteriro jugador\n          dir.transfer(address(this).balance);\n          // actualiza nuevo datos\n          dir = msg.sender;\n          email = _email;\n          precio_oferta = _monto;\n          emit ultimo_ofertante(dir, email, precio_oferta);\n      }\n    }*/\n\n}\n",
  "sourcePath": "/home/jkn/Documents/ESAN/rocket/contracts/Delta.sol",
  "compiler": {
    "name": "solc",
    "version": "0.4.24+commit.e67f0147.Emscripten.clang"
  },
  "schemaVersion": "2.0.1",
  "updatedAt": "2019-05-03T08:13:53.241Z"
}