{
  "contractName": "Delta",
  "abi": [
    {
      "inputs": [],
      "payable": false,
      "stateMutability": "nonpayable",
      "type": "constructor"
    },
    {
      "anonymous": false,
      "inputs": [
        {
          "indexed": false,
          "name": "o_item",
          "type": "string"
        },
        {
          "indexed": false,
          "name": "o_precio",
          "type": "uint256"
        },
        {
          "indexed": false,
          "name": "o_dir",
          "type": "address"
        },
        {
          "indexed": false,
          "name": "fin",
          "type": "uint256"
        },
        {
          "indexed": false,
          "name": "state",
          "type": "bool"
        }
      ],
      "name": "datos_oferta",
      "type": "event"
    },
    {
      "anonymous": false,
      "inputs": [
        {
          "indexed": false,
          "name": "my_dir",
          "type": "address"
        },
        {
          "indexed": false,
          "name": "my_email",
          "type": "string"
        },
        {
          "indexed": false,
          "name": "my_monto",
          "type": "uint256"
        }
      ],
      "name": "ultimo_ofertante",
      "type": "event"
    },
    {
      "constant": false,
      "inputs": [
        {
          "name": "_email",
          "type": "string"
        }
      ],
      "name": "ofertar",
      "outputs": [],
      "payable": true,
      "stateMutability": "payable",
      "type": "function"
    },
    {
      "constant": false,
      "inputs": [
        {
          "name": "time",
          "type": "uint256"
        }
      ],
      "name": "terminar_subasta",
      "outputs": [],
      "payable": true,
      "stateMutability": "payable",
      "type": "function"
    }
  ],
  "bytecode": "0x608060405234801561001057600080fd5b5033600460006101000a81548173ffffffffffffffffffffffffffffffffffffffff021916908373ffffffffffffffffffffffffffffffffffffffff160217905550600460009054906101000a900473ffffffffffffffffffffffffffffffffffffffff16600760006101000a81548173ffffffffffffffffffffffffffffffffffffffff021916908373ffffffffffffffffffffffffffffffffffffffff160217905550678ac7230489e800006000819055506040805190810160405280600a81526020017f4954454d5f3058303031000000000000000000000000000000000000000000008152506001908051906020019061010f9291906103e6565b506001600260006101000a81548160ff02191690831515021790555062093a8042016003819055506040805190810160405280601181526020017f53696e205061727469636970616e746573000000000000000000000000000000815250600590805190602001906101829291906103e6565b506040805190810160405280600d81526020017f4e6f205265676973747261646f00000000000000000000000000000000000000815250600690805190602001906101ce9291906103e6565b506001600054016008819055507fc7a3d0ee2c72e7ac8accda9fa7ea5ddd291ea5021d3e2c23b0e3d1124a7c4f966001600054600460009054906101000a900473ffffffffffffffffffffffffffffffffffffffff16600354600260009054906101000a900460ff1660405180806020018681526020018573ffffffffffffffffffffffffffffffffffffffff1673ffffffffffffffffffffffffffffffffffffffff168152602001848152602001831515151581526020018281038252878181546001816001161561010002031660029004815260200191508054600181600116156101000203166002900480156103085780601f106102dd57610100808354040283529160200191610308565b820191906000526020600020905b8154815290600101906020018083116102eb57829003601f168201915b5050965050505050505060405180910390a17f6465b0bf12f7e280874be1fc26f03ca9c2ce3344bf57f986ad9169d0b8a83fce600760009054906101000a900473ffffffffffffffffffffffffffffffffffffffff166000604051808373ffffffffffffffffffffffffffffffffffffffff1673ffffffffffffffffffffffffffffffffffffffff16815260200180602001838152602001828103825260178152602001807f656d61696c2061756e206e6f207265676973747261646f000000000000000000815250602001935050505060405180910390a161048b565b828054600181600116156101000203166002900490600052602060002090601f016020900481019282601f1061042757805160ff1916838001178555610455565b82800160010185558215610455579182015b82811115610454578251825591602001919060010190610439565b5b5090506104629190610466565b5090565b61048891905b8082111561048457600081600090555060010161046c565b5090565b90565b6106da8061049a6000396000f30060806040526004361061004c576000357c0100000000000000000000000000000000000000000000000000000000900463ffffffff16806315c312f714610051578063b89f75fe146100ad575b600080fd5b6100ab600480360381019080803590602001908201803590602001908080601f01602080910402602001604051908101604052809392919081815260200183838082843782019150505050505091929192905050506100cd565b005b6100cb60048036038101908080359060200190929190505050610305565b005b600854341080156100e057506000543411155b80156100f85750600260009054906101000a900460ff165b156102fd57600760009054906101000a900473ffffffffffffffffffffffffffffffffffffffff1673ffffffffffffffffffffffffffffffffffffffff166108fc343073ffffffffffffffffffffffffffffffffffffffff1631039081150290604051600060405180830381858888f1935050505015801561017e573d6000803e3d6000fd5b5033600760006101000a81548173ffffffffffffffffffffffffffffffffffffffff021916908373ffffffffffffffffffffffffffffffffffffffff16021790555080600690805190602001906101d6929190610609565b50346008819055507f6465b0bf12f7e280874be1fc26f03ca9c2ce3344bf57f986ad9169d0b8a83fce600760009054906101000a900473ffffffffffffffffffffffffffffffffffffffff166006600854604051808473ffffffffffffffffffffffffffffffffffffffff1673ffffffffffffffffffffffffffffffffffffffff168152602001806020018381526020018281038252848181546001816001161561010002031660029004815260200191508054600181600116156101000203166002900480156102e85780601f106102bd576101008083540402835291602001916102e8565b820191906000526020600020905b8154815290600101906020018083116102cb57829003601f168201915b505094505050505060405180910390a1610302565b600080fd5b50565b600081111515610606576000600260006101000a81548160ff021916908315150217905550600460009054906101000a900473ffffffffffffffffffffffffffffffffffffffff1673ffffffffffffffffffffffffffffffffffffffff166108fc343073ffffffffffffffffffffffffffffffffffffffff1631039081150290604051600060405180830381858888f193505050501580156103ab573d6000803e3d6000fd5b507fc7a3d0ee2c72e7ac8accda9fa7ea5ddd291ea5021d3e2c23b0e3d1124a7c4f966001600054600460009054906101000a900473ffffffffffffffffffffffffffffffffffffffff16600354600260009054906101000a900460ff1660405180806020018681526020018573ffffffffffffffffffffffffffffffffffffffff1673ffffffffffffffffffffffffffffffffffffffff168152602001848152602001831515151581526020018281038252878181546001816001161561010002031660029004815260200191508054600181600116156101000203166002900480156104d95780601f106104ae576101008083540402835291602001916104d9565b820191906000526020600020905b8154815290600101906020018083116104bc57829003601f168201915b5050965050505050505060405180910390a17f6465b0bf12f7e280874be1fc26f03ca9c2ce3344bf57f986ad9169d0b8a83fce600760009054906101000a900473ffffffffffffffffffffffffffffffffffffffff166006600854604051808473ffffffffffffffffffffffffffffffffffffffff1673ffffffffffffffffffffffffffffffffffffffff168152602001806020018381526020018281038252848181546001816001161561010002031660029004815260200191508054600181600116156101000203166002900480156105f55780601f106105ca576101008083540402835291602001916105f5565b820191906000526020600020905b8154815290600101906020018083116105d857829003601f168201915b505094505050505060405180910390a15b50565b828054600181600116156101000203166002900490600052602060002090601f016020900481019282601f1061064a57805160ff1916838001178555610678565b82800160010185558215610678579182015b8281111561067757825182559160200191906001019061065c565b5b5090506106859190610689565b5090565b6106ab91905b808211156106a757600081600090555060010161068f565b5090565b905600a165627a7a72305820f4f495916eb0527346481e8a47bc08b98e57dcafddd32b958db981d40e1a9fc80029",
  "source": "//pragma solidity >=0.4.21 <0.6.0;\npragma solidity ^0.4.24;\n\n\ncontract Delta {\n\n    // DATOS DEL ITEM\n    uint precio_base;\n    string  item;\n    bool open;\n    uint time_fin;\n    address  owner;\n\n    // DATOS DEL JUGADOR\n    string nombre;\n    string email;\n    address  dir;\n    uint precio_oferta;\n\n    // MENSAJES\n    event datos_oferta(string o_item, uint o_precio, address o_dir, uint fin, bool state);\n    event ultimo_ofertante(address my_dir, string my_email, uint my_monto);\n\n    constructor() public {\n      owner = msg.sender; //dato temporal cuante del dueño del item\n      dir = owner;\n      precio_base = 10 * 1000000000000000000;\n      item = \"ITEM_0X001\";\n      open = true;\n      time_fin = now + (60*60*24*7); //86400;\n\n      nombre = \"Sin Participantes\";\n      email = \"No Registrado\";\n      precio_oferta = precio_base+1;\n      //precio_oferta = 0;\n\n      emit datos_oferta(item, precio_base, owner, time_fin, open);\n      //emit ultimo_ofertante(dir, \"email aun no registrado\", precio_oferta);\n      emit ultimo_ofertante(dir, \"email aun no registrado\", 0);\n    }\n\n    function ofertar (string memory _email) public payable{\n      if((msg.value < precio_oferta) && (msg.value  <= precio_base) && open){\n          // retorna dinero al anteriro jugador\n          dir.transfer(address(this).balance-msg.value);\n          // actualiza nuevo datos\n          dir = msg.sender;\n          email = _email;\n          precio_oferta = msg.value;\n          emit ultimo_ofertante(dir, email, precio_oferta);\n      }else{\n        revert();\n      }\n    }\n\n    function terminar_subasta(uint time) public payable{\n        if(time <= 0){\n            open = false;\n            owner.transfer(address(this).balance-msg.value);\n            emit datos_oferta(item, precio_base, owner, time_fin, open);\n            emit ultimo_ofertante(dir, email, precio_oferta);\n        }\n    }\n}\n",
  "sourcePath": "/home/jkn/Documents/ESAN/rocket/contracts/Delta.sol",
  "compiler": {
    "name": "solc",
    "version": "0.4.24+commit.e67f0147.Emscripten.clang"
  },
  "schemaVersion": "2.0.1",
  "updatedAt": "2019-05-25T16:47:06.024Z"
}